{
  "_format": "hh-sol-artifact-1",
  "contractName": "PredictionMarket",
  "sourceName": "contracts/prediction_smart_contract.sol",
  "abi": [
    {
      "inputs": [
        {
          "internalType": "address",
          "name": "_oracle",
          "type": "address"
        },
        {
          "internalType": "address",
          "name": "_sapphire",
          "type": "address"
        }
      ],
      "stateMutability": "nonpayable",
      "type": "constructor"
    },
    {
      "anonymous": false,
      "inputs": [
        {
          "indexed": true,
          "internalType": "address",
          "name": "user",
          "type": "address"
        },
        {
          "indexed": false,
          "internalType": "uint256",
          "name": "amount",
          "type": "uint256"
        }
      ],
      "name": "BetPlaced",
      "type": "event"
    },
    {
      "anonymous": false,
      "inputs": [
        {
          "indexed": true,
          "internalType": "address",
          "name": "user",
          "type": "address"
        },
        {
          "indexed": false,
          "internalType": "uint256",
          "name": "amount",
          "type": "uint256"
        }
      ],
      "name": "Payout",
      "type": "event"
    },
    {
      "anonymous": false,
      "inputs": [
        {
          "indexed": false,
          "internalType": "bool",
          "name": "outcome",
          "type": "bool"
        }
      ],
      "name": "Resolved",
      "type": "event"
    },
    {
      "inputs": [
        {
          "internalType": "address",
          "name": "",
          "type": "address"
        }
      ],
      "name": "bets",
      "outputs": [
        {
          "internalType": "bytes",
          "name": "encryptedChoice",
          "type": "bytes"
        },
        {
          "internalType": "uint256",
          "name": "amount",
          "type": "uint256"
        },
        {
          "internalType": "bool",
          "name": "decryptedChoice",
          "type": "bool"
        },
        {
          "internalType": "bool",
          "name": "isWinner",
          "type": "bool"
        }
      ],
      "stateMutability": "view",
      "type": "function"
    },
    {
      "inputs": [],
      "name": "getOracleAddress",
      "outputs": [
        {
          "internalType": "address",
          "name": "",
          "type": "address"
        }
      ],
      "stateMutability": "view",
      "type": "function"
    },
    {
      "inputs": [],
      "name": "getPublicKey",
      "outputs": [
        {
          "internalType": "bytes",
          "name": "",
          "type": "bytes"
        }
      ],
      "stateMutability": "view",
      "type": "function"
    },
    {
      "inputs": [],
      "name": "isResolved",
      "outputs": [
        {
          "internalType": "bool",
          "name": "",
          "type": "bool"
        }
      ],
      "stateMutability": "view",
      "type": "function"
    },
    {
      "inputs": [],
      "name": "oracle",
      "outputs": [
        {
          "internalType": "address",
          "name": "",
          "type": "address"
        }
      ],
      "stateMutability": "view",
      "type": "function"
    },
    {
      "inputs": [],
      "name": "outcome",
      "outputs": [
        {
          "internalType": "bool",
          "name": "",
          "type": "bool"
        }
      ],
      "stateMutability": "view",
      "type": "function"
    },
    {
      "inputs": [
        {
          "internalType": "uint256",
          "name": "",
          "type": "uint256"
        }
      ],
      "name": "participants",
      "outputs": [
        {
          "internalType": "address",
          "name": "",
          "type": "address"
        }
      ],
      "stateMutability": "view",
      "type": "function"
    },
    {
      "inputs": [
        {
          "internalType": "bytes",
          "name": "encryptedChoice",
          "type": "bytes"
        }
      ],
      "name": "placeBet",
      "outputs": [],
      "stateMutability": "payable",
      "type": "function"
    },
    {
      "inputs": [
        {
          "internalType": "bool",
          "name": "_outcome",
          "type": "bool"
        }
      ],
      "name": "resolve",
      "outputs": [],
      "stateMutability": "nonpayable",
      "type": "function"
    },
    {
      "inputs": [],
      "name": "sapphire",
      "outputs": [
        {
          "internalType": "contract ISapphire",
          "name": "",
          "type": "address"
        }
      ],
      "stateMutability": "view",
      "type": "function"
    },
    {
      "inputs": [],
      "name": "totalPool",
      "outputs": [
        {
          "internalType": "uint256",
          "name": "",
          "type": "uint256"
        }
      ],
      "stateMutability": "view",
      "type": "function"
    },
    {
      "inputs": [],
      "name": "totalWinningBets",
      "outputs": [
        {
          "internalType": "uint256",
          "name": "",
          "type": "uint256"
        }
      ],
      "stateMutability": "view",
      "type": "function"
    }
  ],
  "bytecode": "0x60c06040523480156200001157600080fd5b5060405162001b6a38038062001b6a833981810160405281019062000037919062000111565b8173ffffffffffffffffffffffffffffffffffffffff1660a08173ffffffffffffffffffffffffffffffffffffffff16815250508073ffffffffffffffffffffffffffffffffffffffff1660808173ffffffffffffffffffffffffffffffffffffffff1681525050505062000158565b600080fd5b600073ffffffffffffffffffffffffffffffffffffffff82169050919050565b6000620000d982620000ac565b9050919050565b620000eb81620000cc565b8114620000f757600080fd5b50565b6000815190506200010b81620000e0565b92915050565b600080604083850312156200012b576200012a620000a7565b5b60006200013b85828601620000fa565b92505060206200014e85828601620000fa565b9150509250929050565b60805160a0516119d06200019a600039600081816102c801528181610539015261063101526000818161043701528181610515015261097a01526119d06000f3fe6080604052600436106100a75760003560e01c80637dc0d1d0116100645780637dc0d1d0146101be57806389a78f1a146101e9578063b18b78dd14610229578063d7e850ce14610254578063dbb3f53714610270578063ecfb49a31461029b576100a7565b80630bede3f8146100ac57806327793f87146100d55780632e3344521461010057806335c1d3491461012b5780634cc80a5b146101685780635ded5c9514610193575b600080fd5b3480156100b857600080fd5b506100d360048036038101906100ce9190610ccf565b6102c6565b005b3480156100e157600080fd5b506100ea610420565b6040516100f79190610d0b565b60405180910390f35b34801561010c57600080fd5b50610115610433565b6040516101229190610db6565b60405180910390f35b34801561013757600080fd5b50610152600480360381019061014d9190610e0e565b6104ce565b60405161015f9190610e7c565b60405180910390f35b34801561017457600080fd5b5061017d61050d565b60405161018a9190610ea6565b60405180910390f35b34801561019f57600080fd5b506101a8610513565b6040516101b59190610f20565b60405180910390f35b3480156101ca57600080fd5b506101d3610537565b6040516101e09190610e7c565b60405180910390f35b3480156101f557600080fd5b50610210600480360381019061020b9190610f67565b61055b565b6040516102209493929190610f94565b60405180910390f35b34801561023557600080fd5b5061023e61062d565b60405161024b9190610e7c565b60405180910390f35b61026e60048036038101906102699190611045565b610655565b005b34801561027c57600080fd5b506102856108c1565b6040516102929190610d0b565b60405180910390f35b3480156102a757600080fd5b506102b06108d2565b6040516102bd9190610ea6565b60405180910390f35b7f000000000000000000000000000000000000000000000000000000000000000073ffffffffffffffffffffffffffffffffffffffff163373ffffffffffffffffffffffffffffffffffffffff1614610354576040517f08c379a000000000000000000000000000000000000000000000000000000000815260040161034b906110ef565b60405180910390fd5b60008054906101000a900460ff16156103a2576040517f08c379a00000000000000000000000000000000000000000000000000000000081526004016103999061115b565b60405180910390fd5b80600060016101000a81548160ff02191690831515021790555060016000806101000a81548160ff0219169083151502179055506103de6108d8565b6103e6610abf565b7fdabf623a6bec72ad159e2d9533e7149ec45bfc657e39f49fb6a9509852dc77dc816040516104159190610d0b565b60405180910390a150565b600060019054906101000a900460ff1681565b60607f000000000000000000000000000000000000000000000000000000000000000073ffffffffffffffffffffffffffffffffffffffff166363ffab316040518163ffffffff1660e01b8152600401600060405180830381865afa1580156104a0573d6000803e3d6000fd5b505050506040513d6000823e3d601f19601f820116820180604052508101906104c9919061129c565b905090565b600481815481106104de57600080fd5b906000526020600020016000915054906101000a900473ffffffffffffffffffffffffffffffffffffffff1681565b60025481565b7f000000000000000000000000000000000000000000000000000000000000000081565b7f000000000000000000000000000000000000000000000000000000000000000081565b600360205280600052604060002060009150905080600001805461057e90611314565b80601f01602080910402602001604051908101604052809291908181526020018280546105aa90611314565b80156105f75780601f106105cc576101008083540402835291602001916105f7565b820191906000526020600020905b8154815290600101906020018083116105da57829003601f168201915b5050505050908060010154908060020160009054906101000a900460ff16908060020160019054906101000a900460ff16905084565b60007f0000000000000000000000000000000000000000000000000000000000000000905090565b60008054906101000a900460ff16156106a3576040517f08c379a000000000000000000000000000000000000000000000000000000000815260040161069a90611391565b60405180910390fd5b600034116106e6576040517f08c379a00000000000000000000000000000000000000000000000000000000081526004016106dd906113fd565b60405180910390fd5b604051806080016040528083838080601f016020809104026020016040519081016040528093929190818152602001838380828437600081840152601f19601f82011690508083019250505050505050815260200134815260200160001515815260200160001515815250600360003373ffffffffffffffffffffffffffffffffffffffff1673ffffffffffffffffffffffffffffffffffffffff16815260200190815260200160002060008201518160000190816107a591906115bf565b506020820151816001015560408201518160020160006101000a81548160ff02191690831515021790555060608201518160020160016101000a81548160ff0219169083151502179055509050506004339080600181540180825580915050600190039060005260206000200160009091909190916101000a81548173ffffffffffffffffffffffffffffffffffffffff021916908373ffffffffffffffffffffffffffffffffffffffff160217905550346001600082825461086891906116c0565b925050819055503373ffffffffffffffffffffffffffffffffffffffff167f43e08d78302cdf9c94e1ffd293c2a3696139ee41cf3199b6f5eed9c7f6cc6090346040516108b59190610ea6565b60405180910390a25050565b60008054906101000a900460ff1681565b60015481565b600060028190555060005b600480549050811015610abc57600060048281548110610906576109056116f4565b5b9060005260206000200160009054906101000a900473ffffffffffffffffffffffffffffffffffffffff1690506000600360008373ffffffffffffffffffffffffffffffffffffffff1673ffffffffffffffffffffffffffffffffffffffff168152602001908152602001600020905060007f000000000000000000000000000000000000000000000000000000000000000073ffffffffffffffffffffffffffffffffffffffff166398fe9dfb836000016040518263ffffffff1660e01b81526004016109d491906117cd565b600060405180830381865afa1580156109f1573d6000803e3d6000fd5b505050506040513d6000823e3d601f19601f82011682018060405250810190610a1a919061129c565b9050600081806020019051810190610a329190611817565b9050808360020160006101000a81548160ff021916908315150217905550600060019054906101000a900460ff16151581151503610aa55760018360020160016101000a81548160ff021916908315150217905550826001015460026000828254610a9d91906116c0565b925050819055505b505050508080610ab490611844565b9150506108e3565b50565b600060025411610b04576040517f08c379a0000000000000000000000000000000000000000000000000000000008152600401610afb906118d8565b60405180910390fd5b60005b600480549050811015610c8057600060048281548110610b2a57610b296116f4565b5b9060005260206000200160009054906101000a900473ffffffffffffffffffffffffffffffffffffffff1690506000600360008373ffffffffffffffffffffffffffffffffffffffff1673ffffffffffffffffffffffffffffffffffffffff16815260200190815260200160002090508060020160019054906101000a900460ff1615610c6b5760006002546001548360010154610bc891906118f8565b610bd29190611969565b90508273ffffffffffffffffffffffffffffffffffffffff166108fc829081150290604051600060405180830381858888f19350505050158015610c1a573d6000803e3d6000fd5b508273ffffffffffffffffffffffffffffffffffffffff167f5afeca38b2064c23a692c4cf353015d80ab3ecc417b4f893f372690c11fbd9a682604051610c619190610ea6565b60405180910390a2505b50508080610c7890611844565b915050610b07565b50565b6000604051905090565b600080fd5b600080fd5b60008115159050919050565b610cac81610c97565b8114610cb757600080fd5b50565b600081359050610cc981610ca3565b92915050565b600060208284031215610ce557610ce4610c8d565b5b6000610cf384828501610cba565b91505092915050565b610d0581610c97565b82525050565b6000602082019050610d206000830184610cfc565b92915050565b600081519050919050565b600082825260208201905092915050565b60005b83811015610d60578082015181840152602081019050610d45565b60008484015250505050565b6000601f19601f8301169050919050565b6000610d8882610d26565b610d928185610d31565b9350610da2818560208601610d42565b610dab81610d6c565b840191505092915050565b60006020820190508181036000830152610dd08184610d7d565b905092915050565b6000819050919050565b610deb81610dd8565b8114610df657600080fd5b50565b600081359050610e0881610de2565b92915050565b600060208284031215610e2457610e23610c8d565b5b6000610e3284828501610df9565b91505092915050565b600073ffffffffffffffffffffffffffffffffffffffff82169050919050565b6000610e6682610e3b565b9050919050565b610e7681610e5b565b82525050565b6000602082019050610e916000830184610e6d565b92915050565b610ea081610dd8565b82525050565b6000602082019050610ebb6000830184610e97565b92915050565b6000819050919050565b6000610ee6610ee1610edc84610e3b565b610ec1565b610e3b565b9050919050565b6000610ef882610ecb565b9050919050565b6000610f0a82610eed565b9050919050565b610f1a81610eff565b82525050565b6000602082019050610f356000830184610f11565b92915050565b610f4481610e5b565b8114610f4f57600080fd5b50565b600081359050610f6181610f3b565b92915050565b600060208284031215610f7d57610f7c610c8d565b5b6000610f8b84828501610f52565b91505092915050565b60006080820190508181036000830152610fae8187610d7d565b9050610fbd6020830186610e97565b610fca6040830185610cfc565b610fd76060830184610cfc565b95945050505050565b600080fd5b600080fd5b600080fd5b60008083601f84011261100557611004610fe0565b5b8235905067ffffffffffffffff81111561102257611021610fe5565b5b60208301915083600182028301111561103e5761103d610fea565b5b9250929050565b6000806020838503121561105c5761105b610c8d565b5b600083013567ffffffffffffffff81111561107a57611079610c92565b5b61108685828601610fef565b92509250509250929050565b600082825260208201905092915050565b7f4e6f74206f7261636c6500000000000000000000000000000000000000000000600082015250565b60006110d9600a83611092565b91506110e4826110a3565b602082019050919050565b60006020820190508181036000830152611108816110cc565b9050919050565b7f416c7265616479207265736f6c76656400000000000000000000000000000000600082015250565b6000611145601083611092565b91506111508261110f565b602082019050919050565b6000602082019050818103600083015261117481611138565b9050919050565b600080fd5b7f4e487b7100000000000000000000000000000000000000000000000000000000600052604160045260246000fd5b6111b882610d6c565b810181811067ffffffffffffffff821117156111d7576111d6611180565b5b80604052505050565b60006111ea610c83565b90506111f682826111af565b919050565b600067ffffffffffffffff82111561121657611215611180565b5b61121f82610d6c565b9050602081019050919050565b600061123f61123a846111fb565b6111e0565b90508281526020810184848401111561125b5761125a61117b565b5b611266848285610d42565b509392505050565b600082601f83011261128357611282610fe0565b5b815161129384826020860161122c565b91505092915050565b6000602082840312156112b2576112b1610c8d565b5b600082015167ffffffffffffffff8111156112d0576112cf610c92565b5b6112dc8482850161126e565b91505092915050565b7f4e487b7100000000000000000000000000000000000000000000000000000000600052602260045260246000fd5b6000600282049050600182168061132c57607f821691505b60208210810361133f5761133e6112e5565b5b50919050565b7f4d61726b6574207265736f6c7665640000000000000000000000000000000000600082015250565b600061137b600f83611092565b915061138682611345565b602082019050919050565b600060208201905081810360008301526113aa8161136e565b9050919050565b7f496e76616c69642062657420616d6f756e740000000000000000000000000000600082015250565b60006113e7601283611092565b91506113f2826113b1565b602082019050919050565b60006020820190508181036000830152611416816113da565b9050919050565b60008190508160005260206000209050919050565b60006020601f8301049050919050565b600082821b905092915050565b60006008830261147f7fffffffffffffffffffffffffffffffffffffffffffffffffffffffffffffffff82611442565b6114898683611442565b95508019841693508086168417925050509392505050565b60006114bc6114b76114b284610dd8565b610ec1565b610dd8565b9050919050565b6000819050919050565b6114d6836114a1565b6114ea6114e2826114c3565b84845461144f565b825550505050565b600090565b6114ff6114f2565b61150a8184846114cd565b505050565b5b8181101561152e576115236000826114f7565b600181019050611510565b5050565b601f821115611573576115448161141d565b61154d84611432565b8101602085101561155c578190505b61157061156885611432565b83018261150f565b50505b505050565b600082821c905092915050565b600061159660001984600802611578565b1980831691505092915050565b60006115af8383611585565b9150826002028217905092915050565b6115c882610d26565b67ffffffffffffffff8111156115e1576115e0611180565b5b6115eb8254611314565b6115f6828285611532565b600060209050601f8311600181146116295760008415611617578287015190505b61162185826115a3565b865550611689565b601f1984166116378661141d565b60005b8281101561165f5784890151825560018201915060208501945060208101905061163a565b8683101561167c5784890151611678601f891682611585565b8355505b6001600288020188555050505b505050505050565b7f4e487b7100000000000000000000000000000000000000000000000000000000600052601160045260246000fd5b60006116cb82610dd8565b91506116d683610dd8565b92508282019050808211156116ee576116ed611691565b5b92915050565b7f4e487b7100000000000000000000000000000000000000000000000000000000600052603260045260246000fd5b6000815461173081611314565b61173a8186610d31565b94506001821660008114611755576001811461176b5761179e565b60ff19831686528115156020028601935061179e565b6117748561141d565b60005b8381101561179657815481890152600182019150602081019050611777565b808801955050505b50505092915050565b50565b60006117b7600083610d31565b91506117c2826117a7565b600082019050919050565b600060408201905081810360008301526117e78184611723565b905081810360208301526117fa816117aa565b905092915050565b60008151905061181181610ca3565b92915050565b60006020828403121561182d5761182c610c8d565b5b600061183b84828501611802565b91505092915050565b600061184f82610dd8565b91507fffffffffffffffffffffffffffffffffffffffffffffffffffffffffffffffff820361188157611880611691565b5b600182019050919050565b7f4e6f2077696e6e65727300000000000000000000000000000000000000000000600082015250565b60006118c2600a83611092565b91506118cd8261188c565b602082019050919050565b600060208201905081810360008301526118f1816118b5565b9050919050565b600061190382610dd8565b915061190e83610dd8565b925082820261191c81610dd8565b9150828204841483151761193357611932611691565b5b5092915050565b7f4e487b7100000000000000000000000000000000000000000000000000000000600052601260045260246000fd5b600061197482610dd8565b915061197f83610dd8565b92508261198f5761198e61193a565b5b82820490509291505056fea264697066735822122010c0c54ef3e234ba93df3b06dd19db13397130e3633ea670bd4256104b771d6764736f6c63430008140033",
  "linkReferences": {},
  "deployedLinkReferences": {}
}